:020000040800F2
:1000000000500020311100089D0200089F020008E6
:10001000A1020008A3020008A502000800000000D9
:10002000000000000000000000000000A70200081F
:10003000A902000800000000AB020008AD020008A1
:100040007911000879110008791100087911000868
:100050007911000879110008791100087911000858
:100060007911000879110008791100087911000848
:100070007911000879110008791100087911000838
:100080007911000879110008791100087911000828
:10009000B502000879110008C502000879110008AE
:1000A0007911000879110008791100087911000808
:1000B00079110008791100087911000879110008F8
:1000C00079110008791100087911000879110008E8
:1000D00079110008791100087911000879110008D8
:1000E000791100087911000879110008000000005A
:1000F0000000000000000000000000000000000000
:0C01000000000000000000005FF808F1A3
:10010C0010B5054C237833B9044B13B10448AFF345
:10011C0000800123237010BD0C00002000000000A3
:10012C00D411000808B5034B1BB103490348AFF3C6
:10013C00008008BD0000000010000020D411000851
:10014C0070B586B002AD0024029403940494059417
:10015C00134B9A6942F010029A619A6902F01002EC
:10016C000092009A9A6942F004029A619B6903F02A
:10017C0004030193019B0B4E22464FF40051304671
:10018C0000F050FF4FF400530293012303930494A7
:10019C00022305932946304600F03AFE06B070BDA6
:1001AC00001002400010014072B6FEE708B50D4881
:1001BC000D4B03602823436000238360C3604FF41E
:1001CC00402202614FF480124261037643768376BB
:1001DC00C3760377437700F0E3F800B908BDFFF767
:1001EC00E3FF00BF280000200064004010B590B071
:1001FC0006AC28220021204600F0B9FF0023019311
:10020C0002930393049305930223069301220A920B
:10021C0010220B920D934FF4C0130F93204600F055
:10022C000FFB70B90F230193022302930023039356
:10023C0004930593012101A800F034FD18B910B006
:10024C0010BDFFF7B1FFFFF7AFFF000008B500F0DE
:10025C00A9FAFFF7CBFFFFF773FFFFF7A7FF0B4CD4
:10026C0001224FF40051204600F0DCFE4FF4FA60FE
:10027C0000F0BCFA00224FF40051204600F0D2FEF0
:10028C004FF4FA7000F0B2FAE9E700BF0010014039
:10029C00FEE7FEE7FEE7FEE7FEE7704770477047B4
:1002AC0008B500F091FA08BD08B5024800F02BF92A
:1002BC0008BD00BF2800002008B5024800F023F953
:1002CC0008BD00BF2800002082B00E4B9A6942F096
:1002DC0001029A619A6902F001020092009ADA69AD
:1002EC0042F08052DA61DB6903F080530193019B89
:1002FC00054A536823F0E06343F08063536002B017
:10030C00704700BF001002400000014030B587B0BC
:10031C000023029303930493059302681E4B9A42A5
:10032C0001D007B030BD03F5D633DA6942F0007264
:10033C00DA61DA6902F000720092009A9A6942F06E
:10034C0004029A619B6903F004030193019B4FF42F
:10035C000063029302AD114C2946204600F058FD73
:10036C004FF48053029302230393032305932946EE
:10037C00204600F04DFD00221146142000F09EFE98
:10038C00142000F0ABFE00221146162000F096FE61
:10039C00162000F0A3FEC4E70064004000080140F2
:1003AC00002800F0A18038B5044690F82030D3B175
:1003BC002268136843F00103136000F011FA05463C
:1003CC0023685A6812F0010F10D100F009FA401B93
:1003DC000A28F5D9636A43F400336362052384F871
:1003EC002030012038BDFFF791FFE1E71A6822F0B9
:1003FC0002021A6000F0F4F9054623685A6812F0FC
:10040C00020F0DD000F0ECF9401B0A28F5D9636AF5
:10041C0043F400336362052384F820300120E1E7C4
:10042C00227E012A3DD01A6822F080021A60637E77
:10043C00012B3BD02268136823F040031360A37E8A
:10044C00012B39D02268136823F020031360E37E5C
:10045C00012B37D02268136843F010031360237FFD
:10046C00012B35D02268136823F008031360637FD7
:10047C00012B33D02268136823F004031360A368A4
:10048C00E268134322691343626913436268013AB9
:10049C0021681343CB6100206062012384F8203073
:1004AC00A0E71A6842F080021A60C0E7226813685D
:1004BC0043F040031360C2E72268136843F0200343
:1004CC001360C4E72268136823F010031360C6E7B7
:1004DC002268136843F008031360C8E722681368A6
:1004EC0043F004031360CAE701207047704770475C
:1004FC007047704770477047704770477047704738
:10050C007047704770472DE9F84F054603685C69E2
:10051C00D3F804809F68D3F80CA0D3F81090D3F8CC
:10052C0018B014F001063BD017F0010616D00122CA
:10053C009A6017F0020F08D117F0040F0CD117F0C6
:10054C00080606D04FF4805608E0FFF7CFFF0026D0
:10055C0004E0FFF7CEFF01E04FF4006617F4807F54
:10056C000DD02B684FF480729A6017F4007F40F026
:10057C00968017F4806F00F0968046F4005617F4BE
:10058C00803F0DD02B684FF480329A6017F4003FF7
:10059C0040F0938017F4802F00F0938046F40046CF
:1005AC0014F0080F07D01AF0100F04D046F40076A0
:1005BC002B681022DA6014F0040F03D01AF0080F25
:1005CC0040F0898014F0020F05D02B68DB6813F023
:1005DC00030F40F0878014F0400F07D019F0100F74
:1005EC0004D046F480662B6810221A6114F0200F98
:1005FC0002D019F0080F79D114F0100F04D02B6829
:10060C001B6913F0030F78D114F4003F02D018F0DB
:10061C00100F76D114F4803F02D018F0080F77D168
:10062C0014F4004F37D018F0040F31D014F4807F3D
:10063C0004D01BF0010F01D046F0010614F4007F2A
:10064C0004D01BF0020F01D046F0020614F4806FA8
:10065C0004D01BF0040F01D046F0040614F4006F14
:10066C0016D01BF0700B13D0BBF1400F66D056D8D0
:10067C00BBF1200F5CD0BBF1300F5CD0BBF1100F85
:10068C0001D146F008062A68936923F07003936140
:10069C002B6804225A60002E56D1BDE8F88F2846EC
:1006AC00FFF725FF6BE717F4006F02D046F4804686
:1006BC0065E72846FFF71EFF61E72846FFF718FF9E
:1006CC006EE717F4002F02D046F4803668E7284610
:1006DC00FFF711FF64E72B680822DA602846FFF762
:1006EC000CFF6FE72846FFF707FF74E72B6808221B
:1006FC001A612846FFF703FF7EE72846FFF7FEFE48
:10070C0082E72B6810225A602846FFF7F9FE81E732
:10071C002B6808225A602846FFF7F3FE80E7BBF1EE
:10072C00500F0ED0BBF1600FADD146F48076AAE726
:10073C0046F01006A7E746F02006A4E746F0400670
:10074C00A1E746F080069EE76B6A33436B6228464E
:10075C00FFF7D8FEA1E7000010B504460E4B1A783F
:10076C004FF47A73B3FBF2F30C4A1068B0FBF3F05E
:10077C0000F0C2FC68B90F2C01D901200AE000225C
:10078C0021464FF0FF3000F099FC054B1C60002017
:10079C0000E0012010BD00BF000000200800002078
:1007AC000400002008B5074A136843F010031360D7
:1007BC00032000F071FC0F20FFF7CEFFFFF784FD44
:1007CC00002008BD00200240034A1168034B1B782F
:1007DC000B441360704700BF500000200000002045
:1007EC00014B1868704700BF5000002038B5044614
:1007FC00FFF7F6FF0546B4F1FF3F02D0044B1B7820
:10080C001C44FFF7EDFF401BA042FAD338BD00BFDC
:10081C000000002082B0084B1B68084AA2FB03238F
:10082C005B0A00FB03F3019300BF019B5A1E01926C
:10083C00002BF9D102B0704708000020D34D621094
:10084C00002800F0F18170B582B00446036813F003
:10085C00010F2CD0994B5B6803F00C03042B1DD0BB
:10086C00964B5B6803F00C03082B12D06368B3F54E
:10087C00803F41D0002B55D103F1804303F5043365
:10088C001A6822F480321A601A6822F480221A60E4
:10089C0037E08A4B5B6813F4803FE7D0874B1B68CB
:1008AC0013F4003F03D06368002B00F0BF81236872
:1008BC0013F0020F75D0814B5B6813F00C0F5FD0F7
:1008CC007E4B5B6803F00C03082B54D02369002B80
:1008DC0000F08A807A4B01221A60FFF781FF0546EF
:1008EC00764B1B6813F0020F75D1FFF779FF401B95
:1008FC000228F5D903209EE1704A136843F4803333
:10090C001360636843B3FFF76BFF05466B4B1B68C3
:10091C0013F4003FCBD1FFF763FF401B6428F5D9DC
:10092C00032088E1B3F5A02F09D0644B1A6822F498
:10093C0080321A601A6822F480221A60E1E703F10F
:10094C008043A3F53C331A6842F480221A601A687B
:10095C0042F480321A60D4E7FFF742FF0546574B4A
:10096C001B6813F4003FA2D0FFF73AFF401B64282A
:10097C00F5D903205FE1514B5B6813F4803FA5D19F
:10098C004E4B1B6813F0020F03D02369012B40F070
:10099C004F814A4A136823F0F803616943EAC103A3
:1009AC001360236813F0080F33D0A369002B5CD0BD
:1009BC00434B0122C3F88024FFF712FF05463F4B3F
:1009CC005B6A13F0020F21D1FFF70AFF401B0228CC
:1009DC00F5D903202FE1394A136823F0F803616934
:1009EC0043EAC1031360DCE7354B00221A60FFF7C2
:1009FC00F7FE0546314B1B6813F0020FD1D0FFF701
:100A0C00EFFE401B0228F5D9032014E10120FFF76B
:100A1C0001FF236813F0040F00F09680274BDB696D
:100A2C0013F0805F34D1254BDA6942F08052DA61E1
:100A3C00DB6903F080530193019B0125214B1B685B
:100A4C0013F4807F26D0E368012B3DD0002B53D1CB
:100A5C0003F1804303F504331A6A22F001021A628F
:100A6C001A6A22F004021A6233E0154B0022C3F812
:100A7C008024FFF7B5FE0546104B5B6A13F0020F9E
:100A8C00C7D0FFF7ADFE401B0228F5D90320D2E0FA
:100A9C000025D3E70B4A136843F480731360FFF708
:100AAC009FFE0646074B1B6813F4807FCBD1FFF7E4
:100ABC0097FE801B6428F5D90320BCE0001002408F
:100ACC0000004242007000405F4A136A43F0010389
:100ADC001362E36833B3FFF783FE06465A4B1B6A77
:100AEC0013F0020F2FD1FFF77BFE801B41F28833EE
:100AFC009842F3D903209EE0052B09D0524B1A6A79
:100B0C0022F001021A621A6A22F004021A62E0E769
:100B1C004D4B1A6A42F004021A621A6A42F0010240
:100B2C001A62D6E7FFF75CFE0646474B1B6A13F0CA
:100B3C00020F08D0FFF754FE801B41F28833984215
:100B4C00F3D9032077E0E5B9E369002B72D03E4A74
:100B5C00526802F00C02082A56D0022B17D03B4BDD
:100B6C0000221A66FFF73CFE0446374B1B6813F055
:100B7C00007F47D0FFF734FE001B0228F5D9032075
:100B8C0059E0314AD36923F08053D361DCE72F4B12
:100B9C0000221A66FFF724FE05462B4B1B6813F048
:100BAC00007F06D0FFF71CFE401B0228F5D903205E
:100BBC0041E0236AB3F5803F1AD023494B6823F4F4
:100BCC007413226A606A024313434B601F4B012269
:100BDC001A66FFF705FE04461B4B1B6813F0007FDB
:100BEC000ED1FFF7FDFD001B0228F5D9032022E0F2
:100BFC00154A536823F40033A1680B435360DCE7B8
:100C0C00002018E0002016E0012B16D00E4B5B687C
:100C1C0003F48031226A914211D103F47013626A99
:100C2C0093420ED1002006E001207047012002E023
:100C3C00012000E0002002B070BD0120FBE7012084
:100C4C00F9E70120F7E700BF001002400000424224
:100C5C000F4B5B6803F00C02082A01D00D4870475B
:100C6C00C3F383420C49885C13F4803F0BD0084BD0
:100C7C005B68C3F34043094AD35C064A02FB00F0AD
:100C8C00B0FBF3F07047064B03FB00F0704700BF5E
:100C9C000010024000127A00F0110008EC1100085C
:100CAC0000093D00002800F0A08070B50D460446F8
:100CBC00524B1B6803F007038B420BD24F4A13684D
:100CCC0023F007030B431360136803F007038B42F5
:100CDC0040F08D80236813F0020F17D013F0040F2F
:100CEC0004D0474A536843F4E0635360236813F01D
:100CFC00080F04D0424A536843F460535360404A8F
:100D0C00536823F0F003A1680B435360236813F07E
:100D1C00010F31D06368012B20D0022B25D0384A2B
:100D2C00126812F0020F64D035494A6822F00302AF
:100D3C0013434B60FFF754FD0646314B5B6803F0E1
:100D4C000C036268B3EB820F16D0FFF749FD801BD2
:100D5C0041F288339842F0D9032045E0284A1268C2
:100D6C0012F4003FE0D101203EE0254A126812F057
:100D7C00007FD9D1012037E0204B1B6803F007031B
:100D8C00AB420AD91D4A136823F007032B431360A7
:100D9C00136803F00703AB422DD1236813F0040F43
:100DAC0006D0174A536823F4E063E1680B435360A1
:100DBC00236813F0080F07D0114A536823F46053CB
:100DCC00216943EAC1035360FFF742FF0C4B5B6898
:100DDC00C3F303130B4AD35CD8400B4B18600B4B7B
:100DEC001868FFF7B9FC002070BD01207047012086
:100DFC00FAE70120F8E70120F6E700BF00200240E7
:100E0C00001002400012000808000020040000201E
:100E1C0070B582B00024A4469EE07C4DAB4214D049
:100E2C000CD8A5F58015AB420FD005F57025AB425B
:100E3C000BD0A5F58015AB421FD106E0744DAB422B
:100E4C0003D005F58035AB4217D18B68A3B1012BCC
:100E5C000DD04261082410E0CC680EE0CC6804345C
:100E6C000BE0CC68083408E0CC680C3405E0026177
:100E7C00082402E0002400E00424BEF1FF0F37D860
:100E8C0006464FEA8C0233680F25954023EA05038A
:100E9C0004FA02F2134333604B6813F0805F59D0AD
:100EAC005C4B9A6942F001029A619B6903F0010361
:100EBC000193019B4FEA9C02951C574B53F82560FC
:100ECC000CF00305AD000F23AB4026EA0306534B91
:100EDC00984214D003F58063984279D003F580636F
:100EEC00984277D003F58063984206D0042307E03C
:100EFC00061DACF108029200C5E7032300E00023B5
:100F0C00AB4033430232444D45F822304B6813F466
:100F1C00801F61D0424A936843EA0E0393604B688A
:100F2C0013F4001F5ED03E4AD36843EA0E03D3602D
:100F3C004B6813F4003F5BD0394A536843EA0E0305
:100F4C0053604B6813F4803F58D0354A136843EA1A
:100F5C000E0313600CF1010C0B6833FA0CF253D036
:100F6C00012202FA0CF203EA020E32EA0303F1D177
:100F7C004B68122B3FF651AF122B3FF67EAF01A5FB
:100F8C0055F823F0570E0008650E00086F0E000888
:100F9C00810E0008870E0008870E0008870E0008D7
:100FAC00870E0008870E0008870E0008870E0008C1
:100FBC00870E0008870E0008870E0008870E0008B1
:100FCC00870E0008870E0008690E0008750E0008D1
:100FDC00012395E7022393E7114A936823EA0E0352
:100FEC0093609CE70E4AD36823EA0E03D3609FE715
:100FFC000B4A536823EA0E035360A2E7084A1368AE
:10100C0023EA0E031360A5E702B070BD00002210A6
:10101C0000003110001002400000014000080140A7
:10102C00000401400AB10161704709040161704775
:10103C00002808DB0901C9B200F1604000F56140ED
:10104C0080F80013704700F00F000901C9B2014B82
:10105C001954704714ED00E000B500F00700C0F122
:10106C00070CBCF1040F28BF4FF0040C031D062B1A
:10107C000FD9C31E4FF0FF3E0EFA0CF021EA00010F
:10108C0099400EFA03FE22EA0E0241EA02005DF8D4
:10109C0004FB0023EEE70000074AD36823F4E06367
:1010AC001B041B0C000200F4E060034343F0BF631D
:1010BC0043F40033D360704700ED00E010B50446F4
:1010CC00054BD868C0F30220FFF7C6FF0146204647
:1010DC00FFF7AEFF10BD00BF00ED00E0002807DBFE
:1010EC0000F01F02400901239340024A42F82030CD
:1010FC00704700BF00E100E00138B0F1807F0BD2F7
:10110C004FF0E0235861054AF02182F823100020AB
:10111C00986107221A6170470120704700ED00E0CA
:10112C0070470000FFF7FCFF0B480C490C4A0023EA
:10113C0002E0D458C4500433C4188C42F9D3094A81
:10114C00094C002301E013600432A242FBD300F0EF
:10115C0017F8FFF77BF87047000000200C00002008
:10116C00181200080C00002054000020FEE7034673
:10117C000244934200D1704703F8011BF9E70000C9
:10118C0070B500260C4D0D4B5B1B9C10A64209D173
:10119C00002600F019F80A4D0A4B5B1B9C10A64266
:1011AC0005D170BD55F8043B98470136EEE755F86C
:1011BC00043B98470136F2E71012000810120008A1
:1011CC001012000814120008F8B500BFF8BC08BCD7
:1011DC009E467047F8B500BFF8BC08BC9E467047E9
:1011EC000102000002030405060708090A0B0C0D96
:1011FC000E0F10100000000000000000010203049C
:04120C0006070809C0
:0412100031010008A0
:041214000D010008C0
:0C121800010000001000000000127A002D
:0400000508001131AD
:00000001FF
