:100000000C9461000C9473000C9473000C947300B6
:100010000C9473000C9473000C9473000C94730094
:100020000C9473000C9473000C9473000C94730084
:100030000C9473000C9473000C9473000C94730074
:100040000C9414010C9473000C9473000C947300C2
:100050000C9473000C9473000C9473000C94730054
:100060000C9473000C947300000000002300260021
:10007000290000000008000201000003040700003E
:1000800000000000000000000000250028002B00F8
:1000900000000000240027002A00040404040404D3
:1000A0000404020202020202030303030303010227
:1000B00004081020408001020408102001020408F6
:1000C000102011241FBECFEFD8E0DEBFCDBF21E04E
:1000D000A0E0B1E001C01D92A930B207E1F70E9493
:1000E0005E010C943C020C94000090E0FC01E2558F
:1000F000FF4F249186569F4FFC018491882399F0ED
:1001000090E0880F991FFC01E057FF4FA591B49133
:10011000FC01EA57FF4F859194918FB7F894EC91C9
:10012000E22BEC938FBF0895833081F028F4813067
:1001300099F08230A9F008958730A9F08830C9F08D
:100140008430B1F4809180008F7D03C08091800065
:100150008F7780938000089584B58F7784BD08954C
:1001600084B58F7DFBCF8091B0008F778093B000F6
:1001700008958091B0008F7DF9CFCF93DF93282F22
:1001800030E0F901EE58FF4F8491F901E255FF4F3D
:10019000D491F901E656FF4FC491CC23A1F081110F
:1001A0000E949400EC2FF0E0EE0FFF1FE859FF4F84
:1001B000A591B491EC91ED2381E090E009F480E009
:1001C000DF91CF91089580E090E0FACF1F93CF9315
:1001D000DF93282F30E0F901EE58FF4F8491F901A9
:1001E000E255FF4FD491F901E656FF4FC491CC235D
:1001F000A9F0162F81110E949400EC2FF0E0EE0F71
:10020000FF1FEA57FF4FA591B4918FB7F894EC9177
:10021000111108C0D095DE23DC938FBFDF91CF9101
:100220001F910895DE2BF8CF1F920F920FB60F92F9
:1002300011242F933F938F939F93AF93BF938091FC
:10024000050190910601A0910701B091080130913C
:10025000040123E0230F2D3758F50196A11DB11D90
:10026000209304018093050190930601A093070158
:10027000B09308018091000190910101A0910201C9
:10028000B09103010196A11DB11D809300019093CF
:100290000101A0930201B0930301BF91AF919F911F
:1002A0008F913F912F910F900FBE0F901F90189537
:1002B00026E8230F0296A11DB11DD2CF789484B5F4
:1002C000826084BD84B5816084BD85B5826085BD52
:1002D00085B5816085BD80916E00816080936E00E0
:1002E00010928100809181008260809381008091D2
:1002F0008100816080938100809180008160809383
:1003000080008091B10084608093B1008091B00042
:1003100081608093B00080917A00846080937A003D
:1003200080917A00826080937A0080917A00816067
:1003300080937A0080917A00806880937A0010928E
:10034000C10082E00E94750083E00E94750084E095
:100350000E94750085E00E94750086E00E9475008D
:1003600087E00E94750061E087E00E94E60060E09F
:1003700084E00E94E60060E085E00E94E60060E024
:1003800086E00E94E60061E082E00E94E60084E0F0
:100390000E94BD007C0185E00E94BD008C0186E0CA
:1003A0000E94BD00E114F10439F40115110521F496
:1003B000C1E0D0E0009769F0000F111FEC01CC0FF5
:1003C000DD1FCC0FDD1FC02BD12BCE29DF29CC0F99
:1003D000DD1F60E087E00E94E60080EC9DE5C89F9D
:1003E0009001C99F300DD89F300D112450E040E09E
:1003F00060E077E883E993E00E941A028901220F06
:10040000331F220F331FE901259793E2E92EF12CC8
:1004100061E083E00E94E600C7010197F1F760E028
:1004200083E00E94E6000230110590F3CE010197AF
:10043000F1F7EECFA1E21A2EAA1BBB1BFD010DC0E6
:10044000AA1FBB1FEE1FFF1FA217B307E407F50784
:1004500020F0A21BB30BE40BF50B661F771F881F60
:10046000991F1A9469F760957095809590959B01F6
:0C047000AC01BD01CF010895F894FFCF4E
:00000001FF
